:1000000000308A000A2900000A108A100A118207AB
:1000100028340C34013406340A108A100A1182077D
:1000200028340E34013406340A108A100A1182076B
:1000300020340C34013405346A308400000803197C
:1000400030280130F800F701F70B2428F80B23289B
:100050004A30F700F70B2A2800000000800B212807
:10006000003406151030F700F70B34280000690E35
:10007000F039F7000F300605770486000130EA00FA
:100080001C2006111030F700F70B44280000003444
:100090000830831686008312661C06106618061444
:1000A0008610A630F700F70B53280000670EE80013
:1000B0000F30E8056808E90031200130EA001C2013
:1000C00067080F39E800E900312086140610A630D1
:1000D000F700F70B6928000000340830831686000B
:1000E00083120610861006110F30EA001C20E20170
:1000F0006208033C031C84280330E90031200530EA
:10010000EA001C20E20A78280230E900312005309C
:10011000EA001C206108013A03199528033A0319E3
:10012000A428013A0319B328C228E2016208033C5B
:10013000031CA32862080420E300E6016308E7002B
:100140004820E20A9628D128E2016208033C031CF9
:10015000B22862080C20E300E6016308E7004820AB
:10016000E20AA528D128E2016208033C031CC12849
:1001700062081420E300E6016308E7004820E20A71
:10018000B428D128E2016208033C031CD02862088D
:100190000420E300E6016308E7004820E20AC328E0
:1001A000D128003465080C3A0319DD28043A0319F4
:1001B000E528023A0319EA28EF28E6010130E700B2
:1001C00048200230EA001C20F528E6010830E7004C
:1001D0004820F528E601C030E7004820F528013026
:1001E000E6006508E7004820F5280034E3016208CE
:1001F00063078400800803190929620863078400E3
:100200000008E400E500D2206108EA001C20E30AAF
:10021000F728003484011F30830507309F00A001B8
:100220004830A1006F30A2007730A3002030A40036
:100230006330A5006130A6006E30A7002030A80012
:100240004930A9002030AA006830AB006530AC000E
:100250006C30AD007030AE003F30AF00B0015430B4
:10026000B1006830B2006530B3002030B4006130B6
:10027000B5006E30B6007330B7007730B800653027
:10028000B9007230BA003F30BB00BC01BD01BE01F5
:10029000BF01C0014630C1006F30C2007230C300E0
:1002A0007430C4007930C5002030C6005430C70017
:1002B0007730C8006F30C9002E30CA00CB01CC01A6
:1002C000CD01CE01CF01D0012030D100D2003F308E
:1002D000D3006E30D4006F30D5006930D600743052
:1002E000D7007330D8006530D9007530DA0051304E
:1002F000DB002030DC006530DD006830DE0054308B
:10030000DF00E0010230E1006D200C30E500D2207A
:100310000530E1002130E200F62086198D290C30ED
:10032000E500D220E830E1003130E200F620861905
:1003300097290C30E500D2200A30E500D2200530A4
:10034000E1004130E200F6200230E100FA30EA003C
:100350001C20E10BA6298619AB290330E1006D2092
:10036000C830E1005130E200F620B0290030F8003A
:02037000630028
:02400E00583F19
:00000001FF
;PIC16F648A
