:10000000000000308A006F290A108A100A11820746
:100010005334743461347234743400340A108A10E6
:100020000A118207523465347334653474342034D1
:1000300064346F346E34653400340A108A100A1147
:100040008207533465347434753470342034643426
:100050006F346E3465340034263084000008031990
:1000600040280130F800F701F70B3428F80B33284B
:100070004A30F700F70B3A2800000000800B3128C7
:10008000003483160510851005118511861186161A
:100090000612831205148514051585150510023006
:1000A000A500FA30A6002C20A50B5128851002309F
:1000B000A500FA30A6002C20A50B59280511023006
:1000C000A500FA30A6002C20A50B6128851102306E
:1000D000A500FA30A6002C20A50B6928051485146C
:1000E00005158515A50125080420003803197D286C
:1000F000A50A0C1E7928990073280D300C1E7E2845
:1001000099000A300C1E822899008A117F2901303B
:10011000A90029082802031C9328861500008611CF
:100120000000A90A8928003406120130A80087209F
:10013000A7012708073C031CB0282608F70027085A
:10014000F8000319A7280310F70CF80BA328771C55
:100150000612771806160130A8008720A70A9928EA
:1001600006160130A80087200034861106121E30C2
:10017000A800872006160A30A80087201B30A6009A
:1001800094200530A80087205F30A6009420A601A7
:1001900094208A1180294030A60094208130A60046
:1001A00094204130A60094200530A60094204230CF
:1001B000A60094208130A60094204330A60094200D
:1001C0000530A60094204430A60094208130A6007B
:1001D00094204530A60094200530A60094208A1172
:1001E00094291230A602031C032926308400FC3017
:1001F00080050310800C800C0008031903290129D5
:100200000000800B00298A110E290830A6009420D6
:100210001630A80087202508A600F1281030A60077
:1002200094200530A80087208A11AA290230A60050
:100230009420861E1F290130A800872019298A11C1
:10024000AB292808F8012702031829292708F700F5
:100250003529F7010830A900A70DF70D2808770206
:100260000318F700F80DA90B2C290034780825088D
:10027000A7006430A80021217708A5007808303055
:10028000031D4929A61C5129A6195129261A2030D7
:100290004C29A61126122614F80778080C1E4E29A0
:1002A00099002508A7000A30A80021217708A50099
:1002B00078083030031D6229A6196729261C672992
:1002C000261A2030F80778080C1E6429990030306F
:1002D000A50725080C1E6A2999008A11F5298401B1
:1002E0001F3083050C30831699002230980090301F
:1002F0008312980007309F00A001A1014128B52872
:10030000A50125080E20003803198B29A50A0C1E0B
:100310008729990081290D300C1E8C2999000A30FB
:100320000C1E90299900CB28A50125081D20003816
:1003300003199F29A50A0C1E9B29990095290D30A8
:100340000C1EA02999000A300C1EA4299900143013
:10035000A50005291629A501250804200038031940
:10036000B629A50A0C1EB2299900AC290D300C1E25
:10037000B72999000A300C1EBB2999006630A300EA
:10038000A3080319FB290130A8008720A401A201BA
:100390002208073C031CED29861EDB290130F700EB
:1003A0002208F8000319D8290310F70DF80BD429F7
:1003B0007708A404E8290130F7002208F80003199F
:1003C000E5290310F70DF80BE1297708FF3AA4059A
:1003D0000130A8008720A20AC8290130A800872080
:1003E0002408A5001B30A60036290A300C1EF62969
:1003F0009900A303C0290230A500FA30A6002C20E2
:08040000A50BFD29A729032A21
:02400E00103F61
:00000001FF
;PIC16F648A
