:10000000000000308A00442EFF00030E8301A1008F
:100010007F08A0000A08A8008A01A00E0408A20018
:100020007708A3007808A4007908A5007A08A6003C
:100030007B08A700831383128C308400801E222843
:100040008C1A3528220884002308F7002408F800B9
:100050002508F9002608FA002708FB0028088A006E
:10006000210E8300FF0E7F0E09008A11262A0A1036
:100070008A100A1182074F344B343A3420344C34FE
:1000800045344434203431342034693473342034DA
:100090006E346F34773420344F344E3400340A10C9
:1000A0008A100A1182074F344B343A3420344C34CE
:1000B00045344434203431342034693473342034AA
:1000C0006E346F34773420344F3446344634003441
:1000D0000A108A100A1182074534723472346F3460
:1000E00072342034773469347434683420344C34B6
:1000F00045344434313400340A108A100A1182071E
:100100004F344B343A3420344C3445344434203466
:10011000323420346934733420346E346F3477349D
:1001200020344F344E3400340A108A100A118207EA
:100130004F344B343A3420344C3445344434203436
:10014000323420346934733420346E346F3477346D
:1001500020344F344634463400340A108A100A11D1
:1001600082074534723472346F34723420347734F9
:1001700069347434683420344C3445344434323473
:1001800000340A108A100A1182074F344B343A3473
:1001900020344C34453444342034333420346934EE
:1001A000733420346E346F34773420344F344E340B
:1001B00000340A108A100A1182074F344B343A3443
:1001C00020344C34453444342034333420346934BE
:1001D000733420346E346F34773420344F344634E3
:1001E000463400340A108A100A11F93E03188A0AAC
:1001F00082004534723472346F3472342034773470
:1002000069347434683420344C34453444343334E1
:1002100000340A148A100A1182074F344B343A34DE
:1002200020344C344534443420343434203469345C
:10023000733420346E346F34773420344F344E347A
:1002400000340A148A100A1182074F344B343A34AE
:1002500020344C344534443420343434203469342C
:10026000733420346E346F34773420344F34463452
:10027000463400340A148A100A1182074534723455
:1002800072346F347234203477346934743468349F
:1002900020344C3445344434343400340A148A1045
:1002A0000A11820743346F346D346D3461346E3417
:1002B000643473343A3400340A148A100A11820701
:1002C0002034683465346C34703400340A148A1075
:1002D0000A11820720346C346534643423342034AA
:1002E0006F346E3420342F3420346F3466346634E7
:1002F00000340A148A100A1182072034203477341B
:1003000068346534723465342034233420346934DD
:1003100073342034613420346E3475346D34623477
:10032000653472342034623465347434773465341F
:1003300065346E3420343134203461346E346434A6
:100340002034343400340A148A100A1182070A3423
:1003500050346C346534613473346534203469341A
:100360006E34703475347434203461342034633422
:100370006F346D346D3461346E3464343A34203407
:1003800000340A148A100A1182070934483465348B
:100390006C346C346F34203463346F346D347034A7
:1003A0007534743465347234213400340A148A107C
:1003B0000A1182070A345434793470346534203495
:1003C0002734683465346C34703427342034663410
:1003D0006F34723420346D346F34723465342034A9
:1003E00069346E3466346F3472346D34613474340D
:1003F00069346F346E3400340A108A140A1182078B
:100400000A3450346C3465346134733465342034C8
:1004100069346E347034753474342034613420346B
:1004200063346F346D346D3461346E3464343A3413
:1004300000348C1E192A1808AA001A08F800AA1CF1
:10044000232A1812181600008A112F2A4D184D2A37
:100450002B304B0784008316E5008312192A83167C
:1004600065088400780880002B3083124B078400D5
:1004700000080D3C03194D1501304B071F39CB0007
:100480004C084B02031D472A4D14CD10492A4D102C
:10049000CD100130F800502A502A0030F800502AC0
:1004A0008C128A1122287230840000080319672AEE
:1004B0000130F800F701F70B5B2AF80B5A2A4A3093
:1004C000F700F70B612A00000000800B582A003467
:1004D00083160510851005118511831205148514E6
:1004E0000515851505100230CE00FA30F2005322B2
:1004F000CE0B752A85100230CE00FA30F20053225E
:10050000CE0B7D2A05110230CE00FA30F2005322C4
:10051000CE0B852A85110230CE00FA30F20053222C
:10052000CE0B8D2A0514851405158515CE014E08B0
:10053000C12100380319A12ACE0A0C1E9D2A990058
:10054000972A0D300C1EA22A99000A300C1EA62AEA
:100550009900CE014E08D62100380319B42ACE0ADC
:100560000C1EB02A9900AA2A0D300C1EB52A99003B
:100570000A300C1EB92A9900CE014E08FC21003821
:100580000319C72ACE0A0C1EC32A9900BD2A0D30B2
:100590000C1EC82A99000A300C1ECC2A99008A1118
:1005A0005E2EF701F8018316600803106118F70743
:1005B000F70CF80CE118F707F70CF80C6119F707BE
:1005C000F70CF80CE119F707F70CF80C611AF707AC
:1005D000F70CF80CE11AF707F70CF80C611BF7079A
:1005E000F70CF80CE11BF707F70CF80C831200343A
:1005F000F401F501F6018316A101A201A301A401F2
:10060000A501A601A701A801A901AA01AB01AC019E
:10061000AD01AE01AF01B001B101B201B301B4014E
:10062000B501B601B701B801B901BA01BB01BC01FE
:10063000BD01BE01BF01C00141106F30C2006E306C
:10064000C300C401C501C6016F30C7006630C800D1
:10065000C900CA01CB016C30CC006530CD006430DC
:10066000CE003130CF00D0016C30D1006530D200E7
:100670006430D3003230D400D5016C30D600653000
:10068000D7006430D8003330D900DA016C30DB0099
:100690006530DC006430DD003430DE00DF017308DB
:1006A000E0006008E10061088400800803196B2BFA
:1006B000610884000008403C0318692B610884002D
:1006C00000085A3C031C692B610884002030000795
:1006D0008000E10A532B6008F80073087407840057
:1006E0000008A000F40A2008203C03196D2B0130FB
:1006F000F4027308E0006008E100610884008008EB
:100700000319842BE10A7D2B60086102F800780848
:1007100074020318B42B7308740784000008203C8B
:1007200003199F2B730874078400800803199F2BFB
:1007300073087407840000080D3C031DA52BA1302D
:10074000750784008001B42BB22BA1307507E0003F
:100750007308740784000008E100600884006108E1
:100760008000F50AF40A792BF4017408063C031C96
:10077000FB2BF5017508033C031CF42B7408E00007
:100780000530E1008312D12275087807C23E84004B
:1007900000088316E100A13075078400000861029B
:1007A000031DD42B4114F22B7408E0000530E10046
:1007B0008312D12275087807C23E84000008831690
:1007C000E100A13075078400000861020319EB2BDA
:1007D0004110F42BF22BA130750784008008031D13
:1007E000F22BF42BF50ABA2B411CF92B7408F800F4
:1007F000FD2BF40AB52BFF30F80083120034720889
:1008000084007308000203190F2C7208840080080A
:10081000031D0D2C0030F800112CF20AFF2B72087A
:10082000F80000342030CE00CF01D001D101D20138
:10083000D301D401D501D601D701D801D901DA01FC
:10084000DB01DC01DD01DE01DF01E001E101E201AC
:10085000E301E401E501E601E701E801E901EA015C
:10086000EB01EC01ED015A30EE00EF014E306F0765
:10087000840000080D3C0319682CCD18662C4E30FE
:100880006F07F200CD185A2C2B304C07840000085B
:10089000F30001304C071F39CC004C084B02031DFC
:1008A000542C4D10CD14562C4D10CD107308F8005B
:1008B0005D2C5D2C0030F8005D2C720884007808F7
:1008C00080000130F2005322EF0A672C682C362C8E
:1008D0004E306F07840080014E30F300F822780814
:1008E000023A03197D2C013A0319D62C073A031951
:1008F0002F2D013A0319882DE12D4E30F2002030C2
:10090000F300FF237808F200F300F822F808031D33
:10091000A02C051CA02C0510F2017208372000380D
:100920000319972CF20A0C1E932C99008D2C0D3074
:100930000C1E982C99000A300C1E9C2C9900D52C6A
:100940004E30F2002030F300FF237808F200F3006D
:10095000F822780BC22C0518C22C0514F20172087B
:100960004F2000380319B92CF20A0C1EB52C99003F
:10097000AF2C0D300C1EBA2C99000A300C1EBE2C68
:100980009900D52CF2017208682000380319CD2C8B
:10099000F20A0C1EC92C9900C32C0D300C1ECE2C53
:1009A00099000A300C1ED22C99002E2E4E30F200E7
:1009B0002030F300FF237808F200F300F822F80853
:1009C000031DF92C851CF92C8510F20172087C207E
:1009D00000380319F02CF20A0C1EEC2C9900E62CBE
:1009E0000D300C1EF12C99000A300C1EF52C9900CC
:1009F0002E2D4E30F2002030F300FF237808F20055
:100A0000F300F822780B1B2D85181B2D8514F2019D
:100A10007208942000380319122DF20A0C1E0E2DB4
:100A20009900082D0D300C1E132D99000A300C1E54
:100A3000172D99002E2DF2017208AD2000380319F0
:100A4000262DF20A0C1E222D99001C2D0D300C1E95
:100A5000272D99000A300C1E2B2D99002E2E4E307A
:100A6000F2002030F300FF237808F200F300F822B0
:100A7000F808031D522D051D522D0511F2017208B3
:100A8000C12000380319492DF20A0C1E452D99008A
:100A90003F2D0D300C1E4A2D99000A300C1E4E2D94
:100AA0009900872D4E30F2002030F300FF237808A4
:100AB000F200F300F822780B742D0519742D05153A
:100AC000F2017208D920003803196B2DF20A0C1EAE
:100AD000672D9900612D0D300C1E6C2D99000A3088
:100AE0000C1E702D9900872DF2017208F22000383B
:100AF00003197F2DF20A0C1E7B2D9900752D0D30E8
:100B00000C1E802D99000A300C1E842D99002E2E6B
:100B10004E30F2002030F300FF237808F200F3009B
:100B2000F822F808031DAB2D851DAB2D8511F201B0
:100B30007208092100380319A22DF20A0C1E9E2DFD
:100B40009900982D0D300C1EA32D99000A300C1E13
:100B5000A72D9900E02D4E30F2002030F300FF2346
:100B60007808F200F300F822780BCD2D8519CD2DF1
:100B70008515F2017208212100380319C42DF20AEB
:100B80000C1EC02D9900BA2D0D300C1EC52D9900DC
:100B90000A300C1EC92D9900E02DF20172083A218D
:100BA00000380319D82DF20A0C1ED42D9900CE2D31
:100BB0000D300C1ED92D99000A300C1EDD2D990028
:100BC0002E2EF20172084E2100380319EC2DF20A84
:100BD0000C1EE82D9900E22D0D300C1EED2D990014
:100BE0000A300C1EF12D9900F20172085C210038C8
:100BF0000319FF2DF20A0C1EFB2D9900F52D0D3067
:100C00000C1E002E99000A300C1E042E9900F201D1
:100C10007208662100380319122EF20A0C1E0E2EDD
:100C20009900082E0D300C1E132E99000A300C1E50
:100C3000172E9900F2017208792100380319252E28
:100C4000F20A0C1E212E99001B2E0D300C1E262E92
:100C500099000A300C1E2A2E99002E2E4D11F201F9
:100C60007208A321003803193A2EF20A0C1E362E00
:100C70009900302E0D300C1E3B2E99000A300C1EB0
:100C80003F2E99008A11612E84011F30830519308F
:100C90008316990022309800903083129800073014
:100CA0009F00A901AA01CB01CC014D10CD144D111B
:100CB00083168C16C03083128B04682A4D1D612E5A
:060CC000122C5E2E622ED4
:02400E00103F61
:00000001FF
;PIC16F648A
