:1000000000308A00C72800000A108A100A118207EF
:100010003C340C34013406340A108A100A11820769
:100020003C340E3401340634573084000008031980
:1000300028280130F800F701F70B1C28F80B1B28C3
:100040004A30F700F70B222800000000800B192827
:10005000003483168601083085008312571C051072
:100060005718051485100000051500005808860073
:1000700000000511000085140510000000348316EF
:1000800086010830850083120510851005110F3098
:10009000D7001420D3015308033C031C5828D70170
:1000A0003030D80029200530D7001420D30A4B283F
:1000B0005208013A03196028033A03196F287E2871
:1000C000D3015308033C031C6E2853080420D400BA
:1000D000D7015408D8002920D30A61288D28D301DC
:1000E0005308033C031C7D2853080C20D400D7017F
:1000F0005408D8002920D30A70288D28D30153082A
:10010000033C031C8C2853080420D400D701540856
:10011000D8002920D30A7F288D288A11242956083F
:100120000C3A03199A28043A0319A228023A03192F
:10013000A728AC28D7010130D80029200230D700E9
:100140001420B228D7010830D8002920B228D701BE
:10015000C030D8002920B2280130D7005608D80076
:100160002920B2280034D4015308540784008008A1
:100170000319C6285308540784000008D500D60088
:100180008F205208D7001420D40AB42800348401E8
:100190001F30830507309F00A0014830A1006F3059
:1001A000A2007730A3002030A4006330A5006130A6
:1001B000A6006E30A7002030A8004930A9002030EA
:1001C000AA006830AB006530AC006C30AD00703018
:1001D000AE003F30AF00B0015430B1006830B20023
:1001E0006530B3002030B4006130B5006E30B60029
:1001F0007330B7007730B8006530B9007230BA009C
:100200003F30BB00BC01BD01BE01BF01C001463093
:10021000C1006F30C2007230C3007430C400793046
:10022000C5002030C6005430C7007730C8006F309A
:10023000C9002E30CA00CB01CC01CD01CE01CF01C7
:10024000D0010230D2003F280C30D6008F2005307C
:10025000D2002130D300B32085192C290C30D600D0
:100260008F20E830D2003130D300B32085193629F1
:100270000C30D6008F200A30D6008F200530D200F7
:100280004130D300B3200230D200FA30D70014201E
:0C029000D20B45292C290030F800630037
:02400E00583F19
:00000001FF
;PIC16F648A
